{
  "contractName": "XENCrypto",
  "abi": [
    {
      "inputs": [],
      "stateMutability": "nonpayable",
      "type": "constructor"
    },
    {
      "anonymous": false,
      "inputs": [
        {
          "indexed": true,
          "internalType": "address",
          "name": "owner",
          "type": "address"
        },
        {
          "indexed": true,
          "internalType": "address",
          "name": "spender",
          "type": "address"
        },
        {
          "indexed": false,
          "internalType": "uint256",
          "name": "value",
          "type": "uint256"
        }
      ],
      "name": "Approval",
      "type": "event"
    },
    {
      "anonymous": false,
      "inputs": [
        {
          "indexed": true,
          "internalType": "address",
          "name": "user",
          "type": "address"
        },
        {
          "indexed": false,
          "internalType": "uint256",
          "name": "rewardAmount",
          "type": "uint256"
        }
      ],
      "name": "MintClaimed",
      "type": "event"
    },
    {
      "anonymous": false,
      "inputs": [
        {
          "indexed": true,
          "internalType": "address",
          "name": "user",
          "type": "address"
        },
        {
          "indexed": false,
          "internalType": "uint256",
          "name": "term",
          "type": "uint256"
        },
        {
          "indexed": false,
          "internalType": "uint256",
          "name": "rank",
          "type": "uint256"
        }
      ],
      "name": "RankClaimed",
      "type": "event"
    },
    {
      "anonymous": false,
      "inputs": [
        {
          "indexed": true,
          "internalType": "address",
          "name": "user",
          "type": "address"
        },
        {
          "indexed": false,
          "internalType": "uint256",
          "name": "amount",
          "type": "uint256"
        },
        {
          "indexed": false,
          "internalType": "uint256",
          "name": "term",
          "type": "uint256"
        }
      ],
      "name": "Staked",
      "type": "event"
    },
    {
      "anonymous": false,
      "inputs": [
        {
          "indexed": true,
          "internalType": "address",
          "name": "from",
          "type": "address"
        },
        {
          "indexed": true,
          "internalType": "address",
          "name": "to",
          "type": "address"
        },
        {
          "indexed": false,
          "internalType": "uint256",
          "name": "value",
          "type": "uint256"
        }
      ],
      "name": "Transfer",
      "type": "event"
    },
    {
      "anonymous": false,
      "inputs": [
        {
          "indexed": true,
          "internalType": "address",
          "name": "user",
          "type": "address"
        },
        {
          "indexed": false,
          "internalType": "uint256",
          "name": "amount",
          "type": "uint256"
        },
        {
          "indexed": false,
          "internalType": "uint256",
          "name": "reward",
          "type": "uint256"
        }
      ],
      "name": "Withdrawn",
      "type": "event"
    },
    {
      "inputs": [],
      "name": "AUTHORS",
      "outputs": [
        {
          "internalType": "string",
          "name": "",
          "type": "string"
        }
      ],
      "stateMutability": "view",
      "type": "function",
      "constant": true
    },
    {
      "inputs": [],
      "name": "DAYS_IN_YEAR",
      "outputs": [
        {
          "internalType": "uint256",
          "name": "",
          "type": "uint256"
        }
      ],
      "stateMutability": "view",
      "type": "function",
      "constant": true
    },
    {
      "inputs": [],
      "name": "EAA_PM_START",
      "outputs": [
        {
          "internalType": "uint256",
          "name": "",
          "type": "uint256"
        }
      ],
      "stateMutability": "view",
      "type": "function",
      "constant": true
    },
    {
      "inputs": [],
      "name": "EAA_PM_STEP",
      "outputs": [
        {
          "internalType": "uint256",
          "name": "",
          "type": "uint256"
        }
      ],
      "stateMutability": "view",
      "type": "function",
      "constant": true
    },
    {
      "inputs": [],
      "name": "EAA_RANK_STEP",
      "outputs": [
        {
          "internalType": "uint256",
          "name": "",
          "type": "uint256"
        }
      ],
      "stateMutability": "view",
      "type": "function",
      "constant": true
    },
    {
      "inputs": [],
      "name": "GENESIS_RANK",
      "outputs": [
        {
          "internalType": "uint256",
          "name": "",
          "type": "uint256"
        }
      ],
      "stateMutability": "view",
      "type": "function",
      "constant": true
    },
    {
      "inputs": [],
      "name": "MAX_TERM_END",
      "outputs": [
        {
          "internalType": "uint256",
          "name": "",
          "type": "uint256"
        }
      ],
      "stateMutability": "view",
      "type": "function",
      "constant": true
    },
    {
      "inputs": [],
      "name": "MAX_TERM_START",
      "outputs": [
        {
          "internalType": "uint256",
          "name": "",
          "type": "uint256"
        }
      ],
      "stateMutability": "view",
      "type": "function",
      "constant": true
    },
    {
      "inputs": [],
      "name": "MIN_TERM",
      "outputs": [
        {
          "internalType": "uint256",
          "name": "",
          "type": "uint256"
        }
      ],
      "stateMutability": "view",
      "type": "function",
      "constant": true
    },
    {
      "inputs": [],
      "name": "REWARD_AMPLIFIER_END",
      "outputs": [
        {
          "internalType": "uint256",
          "name": "",
          "type": "uint256"
        }
      ],
      "stateMutability": "view",
      "type": "function",
      "constant": true
    },
    {
      "inputs": [],
      "name": "REWARD_AMPLIFIER_START",
      "outputs": [
        {
          "internalType": "uint256",
          "name": "",
          "type": "uint256"
        }
      ],
      "stateMutability": "view",
      "type": "function",
      "constant": true
    },
    {
      "inputs": [],
      "name": "SECONDS_IN_DAY",
      "outputs": [
        {
          "internalType": "uint256",
          "name": "",
          "type": "uint256"
        }
      ],
      "stateMutability": "view",
      "type": "function",
      "constant": true
    },
    {
      "inputs": [],
      "name": "TERM_AMPLIFIER",
      "outputs": [
        {
          "internalType": "uint256",
          "name": "",
          "type": "uint256"
        }
      ],
      "stateMutability": "view",
      "type": "function",
      "constant": true
    },
    {
      "inputs": [],
      "name": "TERM_AMPLIFIER_THRESHOLD",
      "outputs": [
        {
          "internalType": "uint256",
          "name": "",
          "type": "uint256"
        }
      ],
      "stateMutability": "view",
      "type": "function",
      "constant": true
    },
    {
      "inputs": [],
      "name": "WITHDRAWAL_WINDOW_DAYS",
      "outputs": [
        {
          "internalType": "uint256",
          "name": "",
          "type": "uint256"
        }
      ],
      "stateMutability": "view",
      "type": "function",
      "constant": true
    },
    {
      "inputs": [],
      "name": "XEN_APY_DAYS_STEP",
      "outputs": [
        {
          "internalType": "uint256",
          "name": "",
          "type": "uint256"
        }
      ],
      "stateMutability": "view",
      "type": "function",
      "constant": true
    },
    {
      "inputs": [],
      "name": "XEN_APY_END",
      "outputs": [
        {
          "internalType": "uint256",
          "name": "",
          "type": "uint256"
        }
      ],
      "stateMutability": "view",
      "type": "function",
      "constant": true
    },
    {
      "inputs": [],
      "name": "XEN_APY_START",
      "outputs": [
        {
          "internalType": "uint256",
          "name": "",
          "type": "uint256"
        }
      ],
      "stateMutability": "view",
      "type": "function",
      "constant": true
    },
    {
      "inputs": [],
      "name": "XEN_MIN_BURN",
      "outputs": [
        {
          "internalType": "uint256",
          "name": "",
          "type": "uint256"
        }
      ],
      "stateMutability": "view",
      "type": "function",
      "constant": true
    },
    {
      "inputs": [],
      "name": "XEN_MIN_STAKE",
      "outputs": [
        {
          "internalType": "uint256",
          "name": "",
          "type": "uint256"
        }
      ],
      "stateMutability": "view",
      "type": "function",
      "constant": true
    },
    {
      "inputs": [],
      "name": "activeMinters",
      "outputs": [
        {
          "internalType": "uint256",
          "name": "",
          "type": "uint256"
        }
      ],
      "stateMutability": "view",
      "type": "function",
      "constant": true
    },
    {
      "inputs": [],
      "name": "activeStakes",
      "outputs": [
        {
          "internalType": "uint256",
          "name": "",
          "type": "uint256"
        }
      ],
      "stateMutability": "view",
      "type": "function",
      "constant": true
    },
    {
      "inputs": [
        {
          "internalType": "address",
          "name": "owner",
          "type": "address"
        },
        {
          "internalType": "address",
          "name": "spender",
          "type": "address"
        }
      ],
      "name": "allowance",
      "outputs": [
        {
          "internalType": "uint256",
          "name": "",
          "type": "uint256"
        }
      ],
      "stateMutability": "view",
      "type": "function",
      "constant": true
    },
    {
      "inputs": [
        {
          "internalType": "address",
          "name": "spender",
          "type": "address"
        },
        {
          "internalType": "uint256",
          "name": "amount",
          "type": "uint256"
        }
      ],
      "name": "approve",
      "outputs": [
        {
          "internalType": "bool",
          "name": "",
          "type": "bool"
        }
      ],
      "stateMutability": "nonpayable",
      "type": "function"
    },
    {
      "inputs": [
        {
          "internalType": "address",
          "name": "account",
          "type": "address"
        }
      ],
      "name": "balanceOf",
      "outputs": [
        {
          "internalType": "uint256",
          "name": "",
          "type": "uint256"
        }
      ],
      "stateMutability": "view",
      "type": "function",
      "constant": true
    },
    {
      "inputs": [],
      "name": "decimals",
      "outputs": [
        {
          "internalType": "uint8",
          "name": "",
          "type": "uint8"
        }
      ],
      "stateMutability": "view",
      "type": "function",
      "constant": true
    },
    {
      "inputs": [
        {
          "internalType": "address",
          "name": "spender",
          "type": "address"
        },
        {
          "internalType": "uint256",
          "name": "subtractedValue",
          "type": "uint256"
        }
      ],
      "name": "decreaseAllowance",
      "outputs": [
        {
          "internalType": "bool",
          "name": "",
          "type": "bool"
        }
      ],
      "stateMutability": "nonpayable",
      "type": "function"
    },
    {
      "inputs": [],
      "name": "genesisTs",
      "outputs": [
        {
          "internalType": "uint256",
          "name": "",
          "type": "uint256"
        }
      ],
      "stateMutability": "view",
      "type": "function",
      "constant": true
    },
    {
      "inputs": [],
      "name": "globalRank",
      "outputs": [
        {
          "internalType": "uint256",
          "name": "",
          "type": "uint256"
        }
      ],
      "stateMutability": "view",
      "type": "function",
      "constant": true
    },
    {
      "inputs": [
        {
          "internalType": "address",
          "name": "spender",
          "type": "address"
        },
        {
          "internalType": "uint256",
          "name": "addedValue",
          "type": "uint256"
        }
      ],
      "name": "increaseAllowance",
      "outputs": [
        {
          "internalType": "bool",
          "name": "",
          "type": "bool"
        }
      ],
      "stateMutability": "nonpayable",
      "type": "function"
    },
    {
      "inputs": [],
      "name": "name",
      "outputs": [
        {
          "internalType": "string",
          "name": "",
          "type": "string"
        }
      ],
      "stateMutability": "view",
      "type": "function",
      "constant": true
    },
    {
      "inputs": [],
      "name": "symbol",
      "outputs": [
        {
          "internalType": "string",
          "name": "",
          "type": "string"
        }
      ],
      "stateMutability": "view",
      "type": "function",
      "constant": true
    },
    {
      "inputs": [],
      "name": "totalSupply",
      "outputs": [
        {
          "internalType": "uint256",
          "name": "",
          "type": "uint256"
        }
      ],
      "stateMutability": "view",
      "type": "function",
      "constant": true
    },
    {
      "inputs": [],
      "name": "totalXenStaked",
      "outputs": [
        {
          "internalType": "uint256",
          "name": "",
          "type": "uint256"
        }
      ],
      "stateMutability": "view",
      "type": "function",
      "constant": true
    },
    {
      "inputs": [
        {
          "internalType": "address",
          "name": "to",
          "type": "address"
        },
        {
          "internalType": "uint256",
          "name": "amount",
          "type": "uint256"
        }
      ],
      "name": "transfer",
      "outputs": [
        {
          "internalType": "bool",
          "name": "",
          "type": "bool"
        }
      ],
      "stateMutability": "nonpayable",
      "type": "function"
    },
    {
      "inputs": [
        {
          "internalType": "address",
          "name": "from",
          "type": "address"
        },
        {
          "internalType": "address",
          "name": "to",
          "type": "address"
        },
        {
          "internalType": "uint256",
          "name": "amount",
          "type": "uint256"
        }
      ],
      "name": "transferFrom",
      "outputs": [
        {
          "internalType": "bool",
          "name": "",
          "type": "bool"
        }
      ],
      "stateMutability": "nonpayable",
      "type": "function"
    },
    {
      "inputs": [
        {
          "internalType": "address",
          "name": "",
          "type": "address"
        }
      ],
      "name": "userBurns",
      "outputs": [
        {
          "internalType": "uint256",
          "name": "",
          "type": "uint256"
        }
      ],
      "stateMutability": "view",
      "type": "function",
      "constant": true
    },
    {
      "inputs": [
        {
          "internalType": "address",
          "name": "",
          "type": "address"
        }
      ],
      "name": "userMints",
      "outputs": [
        {
          "internalType": "address",
          "name": "user",
          "type": "address"
        },
        {
          "internalType": "uint256",
          "name": "term",
          "type": "uint256"
        },
        {
          "internalType": "uint256",
          "name": "maturityTs",
          "type": "uint256"
        },
        {
          "internalType": "uint256",
          "name": "rank",
          "type": "uint256"
        },
        {
          "internalType": "uint256",
          "name": "amplifier",
          "type": "uint256"
        },
        {
          "internalType": "uint256",
          "name": "eaaRate",
          "type": "uint256"
        }
      ],
      "stateMutability": "view",
      "type": "function",
      "constant": true
    },
    {
      "inputs": [
        {
          "internalType": "address",
          "name": "",
          "type": "address"
        }
      ],
      "name": "userStakes",
      "outputs": [
        {
          "internalType": "uint256",
          "name": "term",
          "type": "uint256"
        },
        {
          "internalType": "uint256",
          "name": "maturityTs",
          "type": "uint256"
        },
        {
          "internalType": "uint256",
          "name": "amount",
          "type": "uint256"
        },
        {
          "internalType": "uint256",
          "name": "apy",
          "type": "uint256"
        }
      ],
      "stateMutability": "view",
      "type": "function",
      "constant": true
    },
    {
      "inputs": [
        {
          "internalType": "uint256",
          "name": "rankDelta",
          "type": "uint256"
        },
        {
          "internalType": "uint256",
          "name": "amplifier",
          "type": "uint256"
        },
        {
          "internalType": "uint256",
          "name": "term",
          "type": "uint256"
        },
        {
          "internalType": "uint256",
          "name": "eaa",
          "type": "uint256"
        }
      ],
      "name": "getGrossReward",
      "outputs": [
        {
          "internalType": "uint256",
          "name": "",
          "type": "uint256"
        }
      ],
      "stateMutability": "pure",
      "type": "function",
      "constant": true
    },
    {
      "inputs": [],
      "name": "getUserMint",
      "outputs": [
        {
          "components": [
            {
              "internalType": "address",
              "name": "user",
              "type": "address"
            },
            {
              "internalType": "uint256",
              "name": "term",
              "type": "uint256"
            },
            {
              "internalType": "uint256",
              "name": "maturityTs",
              "type": "uint256"
            },
            {
              "internalType": "uint256",
              "name": "rank",
              "type": "uint256"
            },
            {
              "internalType": "uint256",
              "name": "amplifier",
              "type": "uint256"
            },
            {
              "internalType": "uint256",
              "name": "eaaRate",
              "type": "uint256"
            }
          ],
          "internalType": "struct XENCrypto.MintInfo",
          "name": "",
          "type": "tuple"
        }
      ],
      "stateMutability": "view",
      "type": "function",
      "constant": true
    },
    {
      "inputs": [],
      "name": "getUserStake",
      "outputs": [
        {
          "components": [
            {
              "internalType": "uint256",
              "name": "term",
              "type": "uint256"
            },
            {
              "internalType": "uint256",
              "name": "maturityTs",
              "type": "uint256"
            },
            {
              "internalType": "uint256",
              "name": "amount",
              "type": "uint256"
            },
            {
              "internalType": "uint256",
              "name": "apy",
              "type": "uint256"
            }
          ],
          "internalType": "struct XENCrypto.StakeInfo",
          "name": "",
          "type": "tuple"
        }
      ],
      "stateMutability": "view",
      "type": "function",
      "constant": true
    },
    {
      "inputs": [],
      "name": "getCurrentAMP",
      "outputs": [
        {
          "internalType": "uint256",
          "name": "",
          "type": "uint256"
        }
      ],
      "stateMutability": "view",
      "type": "function",
      "constant": true
    },
    {
      "inputs": [],
      "name": "getCurrentEAAR",
      "outputs": [
        {
          "internalType": "uint256",
          "name": "",
          "type": "uint256"
        }
      ],
      "stateMutability": "view",
      "type": "function",
      "constant": true
    },
    {
      "inputs": [],
      "name": "getCurrentAPY",
      "outputs": [
        {
          "internalType": "uint256",
          "name": "",
          "type": "uint256"
        }
      ],
      "stateMutability": "view",
      "type": "function",
      "constant": true
    },
    {
      "inputs": [
        {
          "internalType": "uint256",
          "name": "term",
          "type": "uint256"
        }
      ],
      "name": "claimRank",
      "outputs": [],
      "stateMutability": "nonpayable",
      "type": "function"
    },
    {
      "inputs": [],
      "name": "claimMintReward",
      "outputs": [],
      "stateMutability": "nonpayable",
      "type": "function"
    },
    {
      "inputs": [
        {
          "internalType": "address",
          "name": "other",
          "type": "address"
        },
        {
          "internalType": "uint256",
          "name": "pct",
          "type": "uint256"
        }
      ],
      "name": "claimMintRewardAndShare",
      "outputs": [],
      "stateMutability": "nonpayable",
      "type": "function"
    },
    {
      "inputs": [
        {
          "internalType": "uint256",
          "name": "pct",
          "type": "uint256"
        },
        {
          "internalType": "uint256",
          "name": "term",
          "type": "uint256"
        }
      ],
      "name": "claimMintRewardAndStake",
      "outputs": [],
      "stateMutability": "nonpayable",
      "type": "function"
    },
    {
      "inputs": [
        {
          "internalType": "uint256",
          "name": "amount",
          "type": "uint256"
        },
        {
          "internalType": "uint256",
          "name": "term",
          "type": "uint256"
        }
      ],
      "name": "stake",
      "outputs": [],
      "stateMutability": "nonpayable",
      "type": "function"
    },
    {
      "inputs": [],
      "name": "withdraw",
      "outputs": [],
      "stateMutability": "nonpayable",
      "type": "function"
    },
    {
      "inputs": [
        {
          "internalType": "address",
          "name": "user",
          "type": "address"
        },
        {
          "internalType": "uint256",
          "name": "amount",
          "type": "uint256"
        }
      ],
      "name": "burn",
      "outputs": [],
      "stateMutability": "nonpayable",
      "type": "function"
    }
  ],
  "bytecode": "0x60a06040526113896005553480156200001757600080fd5b506040518060400160405280600a81526020016958454e2043727970746f60b01b815250604051806040016040528060038152602001622c22a760e91b815250816003908162000068919062000129565b50600462000077828262000129565b50504260805250620001f5565b634e487b7160e01b600052604160045260246000fd5b600181811c90821680620000af57607f821691505b602082108103620000d057634e487b7160e01b600052602260045260246000fd5b50919050565b601f8211156200012457600081815260208120601f850160051c81016020861015620000ff5750805b601f850160051c820191505b8181101562000120578281556001016200010b565b5050505b505050565b81516001600160401b0381111562000145576200014562000084565b6200015d816200015684546200009a565b84620000d6565b602080601f8311600181146200019557600084156200017c5750858301515b600019600386901b1c1916600185901b17855562000120565b600085815260208120601f198616915b82811015620001c657888601518255948401946001909101908401620001a5565b5085821015620001e55787850151600019600388901b60f8161c191681555b5050505050600190811b01905550565b60805161286b6200021f6000396000818161062001528181611f3b0152611f9e015261286b6000f3fe608060405234801561001057600080fd5b506004361061026c5760003560e01c80638979c87c1161014d5780638979c87c1461045e5780638da7ad2314610466578063909a2ff6146104bb57806395d89b41146104c3578063962ca496146104cb57806399202454146104d35780639dc29fac146104db5780639ff054df146104ee578063a457c2d714610501578063a9059cbb14610514578063b0fd1fc214610527578063b21d35f21461053a578063b4800cdc14610543578063ba3ec7411461054c578063bcfe394f14610395578063c0c6525914610554578063c56f0bab1461055c578063ce653d5f14610564578063dd62ed3e14610584578063df28233114610597578063e3af6d0a1461061b578063e81917b414610642578063ed2f23691461064b578063f060482914610654578063f340faed1461065c578063fed742691461066657600080fd5b80630237893214610271578063069612a51461028d57806306fdde0314610296578063095ea7b3146102ab5780630bfae56b146102ce578063110d7fc2146102d657806316f9c8fd146102de57806318160ddd146103195780631c244082146103215780631c5603051461032a5780631c6f212e1461033f57806323b872dd146103485780632a62d966146102d6578063313ce5671461035b57806332870fda1461036a57806339509351146103725780633ccfd60b1461038557806352c7f8dc1461038d578063543d3652146103955780635bccb4c41461039d57806361a52a36146103b05780637010d7a1146103ba57806370a082311461041257806372475f941461043b5780637b0472f0146104435780637e7aa62e14610456575b600080fd5b61027a61016d81565b6040519081526020015b60405180910390f35b61027a60085481565b61029e61066e565b60405161028491906123f2565b6102be6102b936600461245c565b610700565b6040519015158152602001610284565b61027a61071a565b61027a600081565b6102e661072b565b60405161028491908151815260208083015190820152604080830151908201526060918201519181019190915260800190565b60025461027a565b61027a60055481565b61033d61033836600461245c565b61079c565b005b61027a61138981565b6102be610356366004612486565b6109eb565b60405160128152602001610284565b61027a605a81565b6102be61038036600461245c565b610a0f565b61033d610a31565b61033d610b85565b61027a600181565b61033d6103ab3660046124c2565b610c96565b61027a6201518081565b6103c2610f38565b604051610284919081516001600160a01b031681526020808301519082015260408083015190820152606080830151908201526080808301519082015260a0918201519181019190915260c00190565b61027a6104203660046124e4565b6001600160a01b031660009081526020819052604090205490565b61027a600f81565b61033d6104513660046124c2565b610fdd565b61027a600281565b61027a611152565b61049b6104743660046124e4565b600a6020526000908152604090208054600182015460028301546003909301549192909184565b604080519485526020850193909352918301526060820152608001610284565b61027a606481565b61029e611161565b61027a611170565b61027a61117a565b61033d6104e936600461245c565b611184565b61033d6104fc3660046124ff565b611336565b6102be61050f36600461245c565b6115ab565b6102be61052236600461245c565b611626565b61027a610535366004612518565b611634565b61027a61138881565b61027a60065481565b61029e6116c3565b61027a6116df565b61027a600781565b61027a6105723660046124e4565b600b6020526000908152604090205481565b61027a61059236600461254a565b6116ee565b6105e46105a53660046124e4565b6009602052600090815260409020805460018201546002830154600384015460048501546005909501546001600160a01b039094169492939192909186565b604080516001600160a01b0390971687526020870195909552938501929092526060840152608083015260a082015260c001610284565b61027a7f000000000000000000000000000000000000000000000000000000000000000081565b61027a610bb881565b61027a60075481565b61027a611719565b61027a620186a081565b61027a601481565b60606003805461067d9061257d565b80601f01602080910402602001604051908101604052809291908181526020018280546106a99061257d565b80156106f65780601f106106cb576101008083540402835291602001916106f6565b820191906000526020600020905b8154815290600101906020018083116106d957829003601f168201915b5050505050905090565b60003361070e818585611732565b60019150505b92915050565b6107286201518060646125cd565b81565b6107566040518060800160405280600081526020016000815260200160008152602001600081525090565b50336000908152600a6020908152604091829020825160808101845281548152600182015492810192909252600281015492820192909252600390910154606082015290565b33600090815260096020908152604091829020825160c08101845281546001600160a01b03908116825260018301549382019390935260028201549381019390935260038101546060840152600481015460808401526005015460a0830152831661085c5760405162461bcd60e51b815260206004820152602560248201527f4352616e6b3a2043616e6e6f742073686172652077697468207a65726f206164604482015264647265737360d81b60648201526084015b60405180910390fd5b600082116108ac5760405162461bcd60e51b815260206004820181905260248201527f4352616e6b3a2043616e6e6f74207368617265207a65726f2070657263656e746044820152606401610853565b606582106108fc5760405162461bcd60e51b815260206004820181905260248201527f4352616e6b3a2043616e6e6f74207368617265203130302b2070657263656e746044820152606401610853565b60008160600151116109205760405162461bcd60e51b8152600401610853906125e4565b806040015142116109435760405162461bcd60e51b815260040161085390612613565b600061096682606001518360200151846040015185608001518660a00151611857565b61097890670de0b6b3a76400006125cd565b90506000606461098885846125cd565b610992919061265e565b905060006109a08284612680565b90506109ad335b82611955565b6109b78683611955565b6109bf611a22565b60405183815233906000805160206127d1833981519152906020015b60405180910390a2505050505050565b6000336109f9858285611a76565b610a04858585611af0565b506001949350505050565b60003361070e818585610a2283836116ee565b610a2c9190612693565b611732565b336000908152600a6020908152604091829020825160808101845281548152600182015492810192909252600281015492820183905260030154606082015290610ab45760405162461bcd60e51b815260206004820152601460248201527358454e3a206e6f207374616b652065786973747360601b6044820152606401610853565b6000610ad28260400151836000015184602001518560600151611cac565b600780549192506000610ae4836126a6565b9190505550816040015160086000828254610aff9190612680565b90915550610b1e905033828460400151610b199190612693565b611955565b60408083015181519081526020810183905233917f92ccf450a286a957af52509bc1c9939d1a6a481783e142e41e2499f0bb66ebc6910160405180910390a25050336000908152600a60205260408120818155600181018290556002810182905560030155565b33600090815260096020908152604091829020825160c08101845281546001600160a01b031681526001820154928101929092526002810154928201929092526003820154606082018190526004830154608083015260059092015460a082015290610c035760405162461bcd60e51b8152600401610853906125e4565b80604001514211610c265760405162461bcd60e51b815260040161085390612613565b6000610c4982606001518360200151846040015185608001518660a00151611857565b610c5b90670de0b6b3a76400006125cd565b9050610c66336109a7565b610c6e611a22565b60405181815233906000805160206127d1833981519152906020015b60405180910390a25050565b33600090815260096020908152604091829020825160c08101845281546001600160a01b03168152600182015492810192909252600281015492820192909252600382015460608201526004820154608082015260059091015460a082015260658310610d455760405162461bcd60e51b815260206004820181905260248201527f4352616e6b3a2043616e6e6f74207368617265203e3130302070657263656e746044820152606401610853565b6000816060015111610d695760405162461bcd60e51b8152600401610853906125e4565b80604001514211610d8c5760405162461bcd60e51b815260040161085390612613565b6000610daf82606001518360200151846040015185608001518660a00151611857565b610dc190670de0b6b3a76400006125cd565b905060006064610dd186846125cd565b610ddb919061265e565b90506000610de98284612680565b9050610df4336109a7565b610dfc611a22565b60405183815233906000805160206127d18339815191529060200160405180910390a260008211610e3f5760405162461bcd60e51b8152600401610853906126bd565b6001610e4e62015180826125cd565b610e589190612680565b610e6562015180876125cd565b11610e825760405162461bcd60e51b8152600401610853906126eb565b610e91620151806103e86125cd565b610e9c906001612693565b610ea962015180876125cd565b10610ec65760405162461bcd60e51b81526004016108539061271e565b336000908152600a602052604090206002015415610ef65760405162461bcd60e51b815260040161085390612751565b610f008286611d0a565b604080518381526020810187905233917f1449c6dd7851abc30abf37f57715f492010519147cc2652fbc38202c18a6ee9091016109db565b610f7a6040518060c0016040528060006001600160a01b0316815260200160008152602001600081526020016000815260200160008152602001600081525090565b5033600090815260096020908152604091829020825160c08101845281546001600160a01b03168152600182015492810192909252600281015492820192909252600382015460608201526004820154608082015260059091015460a082015290565b81610fe733610420565b101561102f5760405162461bcd60e51b815260206004820152601760248201527658454e3a206e6f7420656e6f7567682062616c616e636560481b6044820152606401610853565b6000821161104f5760405162461bcd60e51b8152600401610853906126bd565b600161105e62015180826125cd565b6110689190612680565b61107562015180836125cd565b116110925760405162461bcd60e51b8152600401610853906126eb565b6110a1620151806103e86125cd565b6110ac906001612693565b6110b962015180836125cd565b106110d65760405162461bcd60e51b81526004016108539061271e565b336000908152600a6020526040902060020154156111065760405162461bcd60e51b815260040161085390612751565b6111103383611dad565b61111a8282611d0a565b604080518381526020810183905233917f1449c6dd7851abc30abf37f57715f492010519147cc2652fbc38202c18a6ee909101610c8a565b600061115c611ee1565b905090565b60606004805461067d9061257d565b600061115c611f25565b600061115c611f92565b600081116111cc5760405162461bcd60e51b8152602060048201526015602482015274109d5c9b8e8810995b1bddc81b5a5b881b1a5b5a5d605a1b6044820152606401610853565b336040516301ffc9a760e01b815263543746b160e01b60048201526001600160a01b0391909116906301ffc9a790602401602060405180830381865afa15801561121a573d6000803e3d6000fd5b505050506040513d601f19601f8201168201806040525081019061123e919061277c565b61128a5760405162461bcd60e51b815260206004820152601e60248201527f4275726e3a206e6f74206120737570706f7274656420636f6e747261637400006044820152606401610853565b611295823383611a76565b61129f8282611dad565b6001600160a01b0382166000908152600b6020526040812080548392906112c7908490612693565b9091555033905060405163543746b160e01b81526001600160a01b03848116600483015260248201849052919091169063543746b190604401600060405180830381600087803b15801561131a57600080fd5b505af115801561132e573d6000803e3d6000fd5b505050505050565b600061134562015180836125cd565b9050600161135662015180826125cd565b6113609190612680565b81116113aa5760405162461bcd60e51b815260206004820152601960248201527821a930b7359d102a32b936903632b9b9903a3430b71036b4b760391b6044820152606401610853565b6113b261206e565b6113bd906001612693565b811061141a5760405162461bcd60e51b815260206004820152602660248201527f4352616e6b3a205465726d206d6f7265207468616e2063757272656e74206d6160448201526578207465726d60d01b6064820152608401610853565b336000908152600960205260409020600301541561147a5760405162461bcd60e51b815260206004820152601f60248201527f4352616e6b3a204d696e7420616c726561647920696e2070726f6772657373006044820152606401610853565b60006040518060c0016040528061148e3390565b6001600160a01b03168152602081018590526040016114ad8442612693565b815260200160055481526020016114c2611f92565b81526020016114cf611ee1565b9052336000908152600960209081526040808320845181546001600160a01b0319166001600160a01b039091161781559184015160018301558301516002820155606083015160038201556080830151600482015560a083015160059091015560068054929350906115408361279e565b919050555061154c3390565b6001600160a01b03167fe9149e1b5059238baed02fa659dbf4bd932fbcf760a431330df4d934bc942f37846005600081548092919061158a9061279e565b909155506040805192835260208301919091520160405180910390a2505050565b600033816115b982866116ee565b9050838110156116195760405162461bcd60e51b815260206004820152602560248201527f45524332303a2064656372656173656420616c6c6f77616e63652062656c6f77604482015264207a65726f60d81b6064820152608401610853565b610a048286868403611732565b60003361070e818585611af0565b60008061164b61164387612174565b600f0b612192565b9050600061168761165b85612174565b61167e61166788612174565b61167e6116738b612174565b600f88900b9061226c565b600f0b9061226c565b90506116ad6116a561169a6103e8612174565b600f84900b906122aa565b600f0b612301565b6001600160401b0316925050505b949350505050565b6040518060600160405280602581526020016128116025913981565b610728620151806103e86125cd565b6001600160a01b03918216600090815260016020908152604080832093909416825291909152205490565b600161172862015180826125cd565b6107289190612680565b6001600160a01b0383166117945760405162461bcd60e51b8152602060048201526024808201527f45524332303a20617070726f76652066726f6d20746865207a65726f206164646044820152637265737360e01b6064820152608401610853565b6001600160a01b0382166117f55760405162461bcd60e51b815260206004820152602260248201527f45524332303a20617070726f766520746f20746865207a65726f206164647265604482015261737360f01b6064820152608401610853565b6001600160a01b0383811660008181526001602090815260408083209487168084529482529182902085905590518481527f8c5be1e5ebec7d5bd14f71427d1e84f3dd0314c0f7b2291e5b200ac8c7c3b92591015b60405180910390a3505050565b6000806118648542612680565b905060006118718261231d565b9050600073__Math__________________________________636d5433e68a60055461189d9190612680565b6040516001600160e01b031960e084901b168152600481019190915260026024820152604401602060405180830381865af41580156118e0573d6000803e3d6000fd5b505050506040513d601f19601f8201168201806040525081019061190491906127b7565b90506000611914866103e8612693565b9050600061192483898c85611634565b905060646119328582612680565b61193c90836125cd565b611946919061265e565b9b9a5050505050505050505050565b6001600160a01b0382166119ab5760405162461bcd60e51b815260206004820152601f60248201527f45524332303a206d696e7420746f20746865207a65726f2061646472657373006044820152606401610853565b80600260008282546119bd9190612693565b90915550506001600160a01b038216600090815260208190526040812080548392906119ea908490612693565b90915550506040518181526001600160a01b038316906000906000805160206127f18339815191529060200160405180910390a35050565b33600090815260096020526040812080546001600160a01b0319168155600181018290556002810182905560038101829055600481018290556005018190556006805491611a6f836126a6565b9190505550565b6000611a8284846116ee565b90506000198114611aea5781811015611add5760405162461bcd60e51b815260206004820152601d60248201527f45524332303a20696e73756666696369656e7420616c6c6f77616e63650000006044820152606401610853565b611aea8484848403611732565b50505050565b6001600160a01b038316611b545760405162461bcd60e51b815260206004820152602560248201527f45524332303a207472616e736665722066726f6d20746865207a65726f206164604482015264647265737360d81b6064820152608401610853565b6001600160a01b038216611bb65760405162461bcd60e51b815260206004820152602360248201527f45524332303a207472616e7366657220746f20746865207a65726f206164647260448201526265737360e81b6064820152608401610853565b6001600160a01b03831660009081526020819052604090205481811015611c2e5760405162461bcd60e51b815260206004820152602660248201527f45524332303a207472616e7366657220616d6f756e7420657863656564732062604482015265616c616e636560d01b6064820152608401610853565b6001600160a01b03808516600090815260208190526040808220858503905591851681529081208054849290611c65908490612693565b92505081905550826001600160a01b0316846001600160a01b03166000805160206127f183398151915284604051611c9f91815260200190565b60405180910390a3611aea565b600082421115611cff57600061016d611cc586856125cd565b611cd290620f42406125cd565b611cdc919061265e565b90506305f5e100611ced82886125cd565b611cf7919061265e565b9150506116bb565b506000949350505050565b60405180608001604052808281526020016201518083611d2a91906125cd565b611d349042612693565b8152602001838152602001611d47611f25565b9052336000908152600a602090815260408083208451815591840151600183015583015160028201556060909201516003909201919091556007805491611d8d8361279e565b91905055508160086000828254611da49190612693565b90915550505050565b6001600160a01b038216611e0d5760405162461bcd60e51b815260206004820152602160248201527f45524332303a206275726e2066726f6d20746865207a65726f206164647265736044820152607360f81b6064820152608401610853565b6001600160a01b03821660009081526020819052604090205481811015611e815760405162461bcd60e51b815260206004820152602260248201527f45524332303a206275726e20616d6f756e7420657863656564732062616c616e604482015261636560f01b6064820152608401610853565b6001600160a01b0383166000908152602081905260408120838303905560028054849290611eb0908490612680565b90915550506040518281526000906001600160a01b038516906000805160206127f18339815191529060200161184a565b600080620186a06005546001611ef791906125cd565b611f01919061265e565b90506064811115611f1457600091505090565b611f1f816064612680565b91505090565b600080611f36605a620151806125cd565b611f607f000000000000000000000000000000000000000000000000000000000000000042612680565b611f6a919061265e565b905080611f7960026014612680565b1015611f8757600291505090565b611f1f816014612680565b60008062015180611fc37f000000000000000000000000000000000000000000000000000000000000000042612680565b611fcd919061265e565b9050610bb88110156120665773__Math__________________________________636d5433e6611fff83610bb8612680565b6040516001600160e01b031960e084901b168152600481019190915260016024820152604401602060405180830381865af4158015612042573d6000803e3d6000fd5b505050506040513d601f19601f82011682018060405250810190611f1f91906127b7565b600191505090565b6000611388600554111561216657600061209c6116a561208e600f612174565b61167e611643600554612174565b6001600160401b0316905060006120b662015180836125cd565b6120c46201518060646125cd565b6120ce9190612693565b905073__Math__________________________________637ae2b5c7826120fa620151806103e86125cd565b6040516001600160e01b031960e085901b16815260048101929092526024820152604401602060405180830381865af415801561213b573d6000803e3d6000fd5b505050506040513d601f19601f8201168201806040525081019061215f91906127b7565b9250505090565b61115c6201518060646125cd565b6000677fffffffffffffff82111561218b57600080fd5b5060401b90565b60008082600f0b136121a357600080fd5b6000600f83900b600160401b81126121bd576040918201911d5b600160201b81126121d0576020918201911d5b6201000081126121e2576010918201911d5b61010081126121f3576008918201911d5b60108112612203576004918201911d5b60048112612213576002918201911d5b60028112612222576001820191505b603f19820160401b600f85900b607f8490031b6001603f1b5b60008113156122615790800260ff81901c8281029390930192607f011c9060011d61223b565b509095945050505050565b6000600f83810b9083900b0260401d60016001607f1b0319811280159061229a575060016001607f1b038113155b6122a357600080fd5b9392505050565b600081600f0b6000036122bc57600080fd5b600082600f0b604085600f0b901b816122d7576122d7612648565b05905060016001607f1b0319811280159061229a575060016001607f1b038113156122a357600080fd5b60008082600f0b121561231357600080fd5b50600f0b60401d90565b60008061232d620151808461265e565b905061233b60016007612680565b81111561234b5750606492915050565b60006001600761235c846003612693565b6001901b61236a919061265e565b6123749190612680565b604051637ae2b5c760e01b8152600481018290526064602482015290915073__Math__________________________________90637ae2b5c790604401602060405180830381865af41580156123ce573d6000803e3d6000fd5b505050506040513d601f19601f820116820180604052508101906116bb91906127b7565b600060208083528351808285015260005b8181101561241f57858101830151858201604001528201612403565b506000604082860101526040601f19601f8301168501019250505092915050565b80356001600160a01b038116811461245757600080fd5b919050565b6000806040838503121561246f57600080fd5b61247883612440565b946020939093013593505050565b60008060006060848603121561249b57600080fd5b6124a484612440565b92506124b260208501612440565b9150604084013590509250925092565b600080604083850312156124d557600080fd5b50508035926020909101359150565b6000602082840312156124f657600080fd5b6122a382612440565b60006020828403121561251157600080fd5b5035919050565b6000806000806080858703121561252e57600080fd5b5050823594602084013594506040840135936060013592509050565b6000806040838503121561255d57600080fd5b61256683612440565b915061257460208401612440565b90509250929050565b600181811c9082168061259157607f821691505b6020821081036125b157634e487b7160e01b600052602260045260246000fd5b50919050565b634e487b7160e01b600052601160045260246000fd5b8082028115828204841417610714576107146125b7565b6020808252601590820152744352616e6b3a204e6f206d696e742065786973747360581b604082015260600190565b6020808252818101527f4352616e6b3a204d696e74206d61747572697479206e6f742072656163686564604082015260600190565b634e487b7160e01b600052601260045260246000fd5b60008261267b57634e487b7160e01b600052601260045260246000fd5b500490565b81810381811115610714576107146125b7565b80820180821115610714576107146125b7565b6000816126b5576126b56125b7565b506000190190565b60208082526014908201527358454e3a2042656c6f77206d696e207374616b6560601b604082015260600190565b60208082526019908201527858454e3a2042656c6f77206d696e207374616b65207465726d60381b604082015260600190565b60208082526019908201527858454e3a2041626f7665206d6178207374616b65207465726d60381b604082015260600190565b60208082526011908201527058454e3a207374616b652065786973747360781b604082015260600190565b60006020828403121561278e57600080fd5b815180151581146122a357600080fd5b6000600182016127b0576127b06125b7565b5060010190565b6000602082840312156127c957600080fd5b505191905056fed74752b13281df13701575f3a507e9b1242e0b5fb040143211c481c1fce573a6ddf252ad1be2c89b69c2b068fc378daa952ba7f163c4a11628f55a4df523b3ef404d724a61636b4c6576696e20406c62656c79616576206661697263727970746f2e6f7267a26469706673582212200b9c6f21fdd7fcfa21811f1d46b84987da8015ba0a8ef1b768fbca491622c95964736f6c63430008110033",
  "immutableReferences": {
    "3720": [
      {
        "length": 32,
        "start": 1568
      },
      {
        "length": 32,
        "start": 7995
      },
      {
        "length": 32,
        "start": 8094
      }
    ]
  },
  "source": "// SPDX-License-Identifier: MIT\npragma solidity ^0.8.10;\n\nimport \"./Math.sol\";\nimport \"@openzeppelin/contracts/token/ERC20/ERC20.sol\";\nimport \"@openzeppelin/contracts/interfaces/IERC165.sol\";\nimport \"abdk-libraries-solidity/ABDKMath64x64.sol\";\nimport \"./interfaces/IStakingToken.sol\";\nimport \"./interfaces/IRankedMintingToken.sol\";\nimport \"./interfaces/IBurnableToken.sol\";\nimport \"./interfaces/IBurnRedeemable.sol\";\n\ncontract XENCrypto is Context, IRankedMintingToken, IStakingToken, IBurnableToken, ERC20(\"XEN Crypto\", \"XEN\") {\n    using Math for uint256;\n    using ABDKMath64x64 for int128;\n    using ABDKMath64x64 for uint256;\n\n    // INTERNAL TYPE TO DESCRIBE A RANK STAKE\n    struct MintInfo {\n        address user;\n        uint256 term;\n        uint256 maturityTs;\n        uint256 rank;\n        uint256 amplifier;\n        uint256 eaaRate;\n    }\n\n    // INTERNAL TYPE TO DESCRIBE A XEN STAKE\n    struct StakeInfo {\n        uint256 term;\n        uint256 maturityTs;\n        uint256 amount;\n        uint256 apy;\n    }\n\n    // PUBLIC CONSTANTS\n\n    uint256 public constant SECONDS_IN_DAY = 3_600 * 24;\n    uint256 public constant DAYS_IN_YEAR = 365;\n\n    uint256 public constant GENESIS_RANK = 5_001;\n\n    uint256 public constant MIN_TERM = 1 * SECONDS_IN_DAY - 1;\n    uint256 public constant MAX_TERM_START = 100 * SECONDS_IN_DAY;\n    uint256 public constant MAX_TERM_END = 1_000 * SECONDS_IN_DAY;\n    uint256 public constant TERM_AMPLIFIER = 15;\n    uint256 public constant TERM_AMPLIFIER_THRESHOLD = 5_000;\n    uint256 public constant REWARD_AMPLIFIER_START = 3_000;\n    uint256 public constant REWARD_AMPLIFIER_END = 1;\n    uint256 public constant EAA_PM_START = 100;\n    uint256 public constant EAA_PM_STEP = 1;\n    uint256 public constant EAA_RANK_STEP = 100_000;\n    uint256 public constant WITHDRAWAL_WINDOW_DAYS = 7;\n\n    uint256 public constant XEN_MIN_STAKE = 0;\n\n    uint256 public constant XEN_MIN_BURN = 0;\n\n    uint256 public constant XEN_APY_START = 20;\n    uint256 public constant XEN_APY_DAYS_STEP = 90;\n    uint256 public constant XEN_APY_END = 2;\n\n    string public constant AUTHORS = \"@MrJackLevin @lbelyaev faircrypto.org\";\n\n    // PUBLIC STATE, READABLE VIA NAMESAKE GETTERS\n\n    uint256 public immutable genesisTs;\n    uint256 public globalRank = GENESIS_RANK;\n    uint256 public activeMinters;\n    uint256 public activeStakes;\n    uint256 public totalXenStaked;\n    // user address => XEN mint info\n    mapping(address => MintInfo) public userMints;\n    // user address => XEN stake info\n    mapping(address => StakeInfo) public userStakes;\n    // user address => XEN burn amount\n    mapping(address => uint256) public userBurns;\n\n    // CONSTRUCTOR\n    constructor() {\n        genesisTs = block.timestamp;\n    }\n\n    // PRIVATE METHODS\n\n    /**\n     * @dev calculates current MaxTerm based on GlobalTank\n     *      (if GlobalTank crosses over TERM_AMPLIFIER_THRESHOLD)\n     */\n    function _calculateMaxTerm() private view returns (uint256) {\n        if (globalRank > TERM_AMPLIFIER_THRESHOLD) {\n            uint256 delta = globalRank.fromUInt().log_2().mul(TERM_AMPLIFIER.fromUInt()).toUInt();\n            uint256 newMax = MAX_TERM_START + delta * SECONDS_IN_DAY;\n            return Math.min(newMax, MAX_TERM_END);\n        }\n        return MAX_TERM_START;\n    }\n\n    /**\n     * @dev calculates Withdrawal Penalty depending on lateness\n     */\n    function _penalty(uint256 secsLate) private pure returns (uint256) {\n        // =MIN(2^(daysLate+3)/window-1,100)\n        uint256 daysLate = secsLate / SECONDS_IN_DAY;\n        if (daysLate > WITHDRAWAL_WINDOW_DAYS - 1) return 100;\n        uint256 penalty = (uint256(1) << (daysLate + 3)) / WITHDRAWAL_WINDOW_DAYS - 1;\n        return Math.min(penalty, 100);\n    }\n\n    /**\n     * @dev calculates net Mint Reward (adjusted for Penalty)\n     */\n    function _calculateMintReward(\n        uint256 cRank,\n        uint256 term,\n        uint256 maturityTs,\n        uint256 amplifier,\n        uint256 eeaRate\n    ) private view returns (uint256) {\n        uint256 secsLate = block.timestamp - maturityTs;\n        uint256 penalty = _penalty(secsLate);\n        uint256 rankDelta = Math.max(globalRank - cRank, 2);\n        uint256 EAA = (1_000 + eeaRate);\n        uint256 reward = getGrossReward(rankDelta, amplifier, term, EAA);\n        return (reward * (100 - penalty)) / 100;\n    }\n\n    /**\n     * @dev cleans up Stake storage (gets some Gas credit;))\n     */\n    function _cleanUpStake() private {\n        delete userMints[_msgSender()];\n        activeMinters--;\n    }\n\n    /**\n     * @dev calculates XEN Stake Reward\n     */\n    function _calculateStakeReward(\n        uint256 amount,\n        uint256 term,\n        uint256 maturityTs,\n        uint256 apy\n    ) private view returns (uint256) {\n        if (block.timestamp > maturityTs) {\n            uint256 rate = (apy * term * 1_000_000) / DAYS_IN_YEAR;\n            return (amount * rate) / 100_000_000;\n        }\n        return 0;\n    }\n\n    /**\n     * @dev calculates Reward Amplifier\n     */\n    function _calculateRewardAmplifier() private view returns (uint256) {\n        uint256 amplifierDecrease = (block.timestamp - genesisTs) / SECONDS_IN_DAY;\n        if (amplifierDecrease < REWARD_AMPLIFIER_START) {\n            return Math.max(REWARD_AMPLIFIER_START - amplifierDecrease, REWARD_AMPLIFIER_END);\n        } else {\n            return REWARD_AMPLIFIER_END;\n        }\n    }\n\n    /**\n     * @dev calculates Early Adopter Amplifier Rate (in 1/000ths)\n     *      actual EAA is (1_000 + EAAR) / 1_000\n     */\n    function _calculateEAARate() private view returns (uint256) {\n        uint256 decrease = (EAA_PM_STEP * globalRank) / EAA_RANK_STEP;\n        if (decrease > EAA_PM_START) return 0;\n        return EAA_PM_START - decrease;\n    }\n\n    /**\n     * @dev calculates APY (in %)\n     */\n    function _calculateAPY() private view returns (uint256) {\n        uint256 decrease = (block.timestamp - genesisTs) / (SECONDS_IN_DAY * XEN_APY_DAYS_STEP);\n        if (XEN_APY_START - XEN_APY_END < decrease) return XEN_APY_END;\n        return XEN_APY_START - decrease;\n    }\n\n    /**\n     * @dev calculates Reward Amplifier\n     */\n    function _createStake(uint256 amount, uint256 term) private {\n        userStakes[_msgSender()] = StakeInfo({\n            term: term,\n            maturityTs: block.timestamp + term * SECONDS_IN_DAY,\n            amount: amount,\n            apy: _calculateAPY()\n        });\n        activeStakes++;\n        totalXenStaked += amount;\n    }\n\n    // PUBLIC CONVENIENCE GETTERS\n\n    /**\n     * @dev calculates gross Mint Reward\n     */\n    function getGrossReward(\n        uint256 rankDelta,\n        uint256 amplifier,\n        uint256 term,\n        uint256 eaa\n    ) public pure returns (uint256) {\n        int128 log128 = rankDelta.fromUInt().log_2();\n        int128 reward128 = log128.mul(amplifier.fromUInt()).mul(term.fromUInt()).mul(eaa.fromUInt());\n        return reward128.div(uint256(1_000).fromUInt()).toUInt();\n    }\n\n    /**\n     * @dev returns Rank Stake object associated with User account address\n     */\n    function getUserMint() external view returns (MintInfo memory) {\n        return userMints[_msgSender()];\n    }\n\n    /**\n     * @dev returns XEN Stake object associated with User account address\n     */\n    function getUserStake() external view returns (StakeInfo memory) {\n        return userStakes[_msgSender()];\n    }\n\n    /**\n     * @dev returns current AMP\n     */\n    function getCurrentAMP() external view returns (uint256) {\n        return _calculateRewardAmplifier();\n    }\n\n    /**\n     * @dev returns current EAA Rate\n     */\n    function getCurrentEAAR() external view returns (uint256) {\n        return _calculateEAARate();\n    }\n\n    /**\n     * @dev returns current APY\n     */\n    function getCurrentAPY() external view returns (uint256) {\n        return _calculateAPY();\n    }\n\n    // PUBLIC STATE-CHANGING METHODS\n\n    /**\n     * @dev accepts User Rank Stake provided all checks pass (incl. no current Stake)\n     */\n    function claimRank(uint256 term) external {\n        uint256 termSec = term * SECONDS_IN_DAY;\n        require(termSec > MIN_TERM, \"CRank: Term less than min\");\n        require(termSec < _calculateMaxTerm() + 1, \"CRank: Term more than current max term\");\n        require(userMints[_msgSender()].rank == 0, \"CRank: Mint already in progress\");\n\n        // create and store new MintInfo\n        MintInfo memory mintInfo = MintInfo({\n            user: _msgSender(),\n            term: term,\n            maturityTs: block.timestamp + termSec,\n            rank: globalRank,\n            amplifier: _calculateRewardAmplifier(),\n            eaaRate: _calculateEAARate()\n        });\n        userMints[_msgSender()] = mintInfo;\n        activeMinters++;\n        emit RankClaimed(_msgSender(), term, globalRank++);\n    }\n\n    /**\n     * @dev ends minting upon maturity (and within permitted Withdrawal Time Window), gets minted XEN\n     */\n    function claimMintReward() external {\n        MintInfo memory mintInfo = userMints[_msgSender()];\n        require(mintInfo.rank > 0, \"CRank: No mint exists\");\n        require(block.timestamp > mintInfo.maturityTs, \"CRank: Mint maturity not reached\");\n\n        // calculate reward and mint tokens\n        uint256 rewardAmount = _calculateMintReward(\n            mintInfo.rank,\n            mintInfo.term,\n            mintInfo.maturityTs,\n            mintInfo.amplifier,\n            mintInfo.eaaRate\n        ) * 1 ether;\n        _mint(_msgSender(), rewardAmount);\n\n        _cleanUpStake();\n        emit MintClaimed(_msgSender(), rewardAmount);\n    }\n\n    /**\n     * @dev  ends Rank Stake upon maturity (and within permitted Withdrawal time Window)\n     *       mints XEN coins and splits them between User and designated other address\n     */\n    function claimMintRewardAndShare(address other, uint256 pct) external {\n        MintInfo memory mintInfo = userMints[_msgSender()];\n        require(other != address(0), \"CRank: Cannot share with zero address\");\n        require(pct > 0, \"CRank: Cannot share zero percent\");\n        require(pct < 101, \"CRank: Cannot share 100+ percent\");\n        require(mintInfo.rank > 0, \"CRank: No mint exists\");\n        require(block.timestamp > mintInfo.maturityTs, \"CRank: Mint maturity not reached\");\n\n        // calculate reward\n        uint256 rewardAmount = _calculateMintReward(\n            mintInfo.rank,\n            mintInfo.term,\n            mintInfo.maturityTs,\n            mintInfo.amplifier,\n            mintInfo.eaaRate\n        ) * 1 ether;\n        uint256 sharedReward = (rewardAmount * pct) / 100;\n        uint256 ownReward = rewardAmount - sharedReward;\n\n        // mint reward tokens\n        _mint(_msgSender(), ownReward);\n        _mint(other, sharedReward);\n\n        _cleanUpStake();\n        emit MintClaimed(_msgSender(), rewardAmount);\n    }\n\n    /**\n     * @dev  ends Rank Stake upon maturity (and within permitted Withdrawal time Window)\n     *       mints XEN coins and stakes 'pct' of it for 'term'\n     */\n    function claimMintRewardAndStake(uint256 pct, uint256 term) external {\n        MintInfo memory mintInfo = userMints[_msgSender()];\n        // require(pct > 0, \"CRank: Cannot share zero percent\");\n        require(pct < 101, \"CRank: Cannot share >100 percent\");\n        require(mintInfo.rank > 0, \"CRank: No mint exists\");\n        require(block.timestamp > mintInfo.maturityTs, \"CRank: Mint maturity not reached\");\n\n        // calculate reward\n        uint256 rewardAmount = _calculateMintReward(\n            mintInfo.rank,\n            mintInfo.term,\n            mintInfo.maturityTs,\n            mintInfo.amplifier,\n            mintInfo.eaaRate\n        ) * 1 ether;\n        uint256 stakedReward = (rewardAmount * pct) / 100;\n        uint256 ownReward = rewardAmount - stakedReward;\n\n        // mint reward tokens part\n        _mint(_msgSender(), ownReward);\n        _cleanUpStake();\n        emit MintClaimed(_msgSender(), rewardAmount);\n\n        // nothing to burn since we haven't minted this part yet\n        // stake extra tokens part\n        require(stakedReward > XEN_MIN_STAKE, \"XEN: Below min stake\");\n        require(term * SECONDS_IN_DAY > MIN_TERM, \"XEN: Below min stake term\");\n        require(term * SECONDS_IN_DAY < MAX_TERM_END + 1, \"XEN: Above max stake term\");\n        require(userStakes[_msgSender()].amount == 0, \"XEN: stake exists\");\n\n        _createStake(stakedReward, term);\n        emit Staked(_msgSender(), stakedReward, term);\n    }\n\n    /**\n     * @dev initiates XEN Stake in amount for a term (days)\n     */\n    function stake(uint256 amount, uint256 term) external {\n        require(balanceOf(_msgSender()) >= amount, \"XEN: not enough balance\");\n        require(amount > XEN_MIN_STAKE, \"XEN: Below min stake\");\n        require(term * SECONDS_IN_DAY > MIN_TERM, \"XEN: Below min stake term\");\n        require(term * SECONDS_IN_DAY < MAX_TERM_END + 1, \"XEN: Above max stake term\");\n        require(userStakes[_msgSender()].amount == 0, \"XEN: stake exists\");\n\n        // burn staked XEN\n        _burn(_msgSender(), amount);\n        // create XEN Stake\n        _createStake(amount, term);\n        emit Staked(_msgSender(), amount, term);\n    }\n\n    /**\n     * @dev ends XEN Stake and gets reward if the Stake is mature\n     */\n    function withdraw() external {\n        StakeInfo memory userStake = userStakes[_msgSender()];\n        require(userStake.amount > 0, \"XEN: no stake exists\");\n\n        uint256 xenReward = _calculateStakeReward(\n            userStake.amount,\n            userStake.term,\n            userStake.maturityTs,\n            userStake.apy\n        );\n        activeStakes--;\n        totalXenStaked -= userStake.amount;\n\n        // mint staked XEN (+ reward)\n        _mint(_msgSender(), userStake.amount + xenReward);\n        emit Withdrawn(_msgSender(), userStake.amount, xenReward);\n        delete userStakes[_msgSender()];\n    }\n\n    /**\n     * @dev burns XEN tokens and creates Proof-Of-Burn record to be used by connected DeFi services\n     */\n    function burn(address user, uint256 amount) public {\n        require(amount > XEN_MIN_BURN, \"Burn: Below min limit\");\n        require(\n            IERC165(_msgSender()).supportsInterface(type(IBurnRedeemable).interfaceId),\n            \"Burn: not a supported contract\"\n        );\n\n        _spendAllowance(user, _msgSender(), amount);\n        _burn(user, amount);\n        userBurns[user] += amount;\n        IBurnRedeemable(_msgSender()).onTokenBurned(user, amount);\n    }\n}\n",
  "sourcePath": "/Users/lbelyaev/dev/XEN-crypto/contracts/XENCrypto.sol",
  "compiler": {
    "name": "solc",
    "version": "0.8.17+commit.8df45f5f.Emscripten.clang"
  },
  "schemaVersion": "3.4.10",
  "updatedAt": "2022-10-01T00:57:38.664Z",
  "networkType": "ethereum",
  "devdoc": {
    "kind": "dev",
    "methods": {
      "allowance(address,address)": {
        "details": "See {IERC20-allowance}."
      },
      "approve(address,uint256)": {
        "details": "See {IERC20-approve}. NOTE: If `amount` is the maximum `uint256`, the allowance is not updated on `transferFrom`. This is semantically equivalent to an infinite approval. Requirements: - `spender` cannot be the zero address."
      },
      "balanceOf(address)": {
        "details": "See {IERC20-balanceOf}."
      },
      "burn(address,uint256)": {
        "details": "burns XEN tokens and creates Proof-Of-Burn record to be used by connected DeFi services"
      },
      "claimMintReward()": {
        "details": "ends minting upon maturity (and within permitted Withdrawal Time Window), gets minted XEN"
      },
      "claimMintRewardAndShare(address,uint256)": {
        "details": "ends Rank Stake upon maturity (and within permitted Withdrawal time Window)       mints XEN coins and splits them between User and designated other address"
      },
      "claimMintRewardAndStake(uint256,uint256)": {
        "details": "ends Rank Stake upon maturity (and within permitted Withdrawal time Window)       mints XEN coins and stakes 'pct' of it for 'term'"
      },
      "claimRank(uint256)": {
        "details": "accepts User Rank Stake provided all checks pass (incl. no current Stake)"
      },
      "decimals()": {
        "details": "Returns the number of decimals used to get its user representation. For example, if `decimals` equals `2`, a balance of `505` tokens should be displayed to a user as `5.05` (`505 / 10 ** 2`). Tokens usually opt for a value of 18, imitating the relationship between Ether and Wei. This is the value {ERC20} uses, unless this function is overridden; NOTE: This information is only used for _display_ purposes: it in no way affects any of the arithmetic of the contract, including {IERC20-balanceOf} and {IERC20-transfer}."
      },
      "decreaseAllowance(address,uint256)": {
        "details": "Atomically decreases the allowance granted to `spender` by the caller. This is an alternative to {approve} that can be used as a mitigation for problems described in {IERC20-approve}. Emits an {Approval} event indicating the updated allowance. Requirements: - `spender` cannot be the zero address. - `spender` must have allowance for the caller of at least `subtractedValue`."
      },
      "getCurrentAMP()": {
        "details": "returns current AMP"
      },
      "getCurrentAPY()": {
        "details": "returns current APY"
      },
      "getCurrentEAAR()": {
        "details": "returns current EAA Rate"
      },
      "getGrossReward(uint256,uint256,uint256,uint256)": {
        "details": "calculates gross Mint Reward"
      },
      "getUserMint()": {
        "details": "returns Rank Stake object associated with User account address"
      },
      "getUserStake()": {
        "details": "returns XEN Stake object associated with User account address"
      },
      "increaseAllowance(address,uint256)": {
        "details": "Atomically increases the allowance granted to `spender` by the caller. This is an alternative to {approve} that can be used as a mitigation for problems described in {IERC20-approve}. Emits an {Approval} event indicating the updated allowance. Requirements: - `spender` cannot be the zero address."
      },
      "name()": {
        "details": "Returns the name of the token."
      },
      "stake(uint256,uint256)": {
        "details": "initiates XEN Stake in amount for a term (days)"
      },
      "symbol()": {
        "details": "Returns the symbol of the token, usually a shorter version of the name."
      },
      "totalSupply()": {
        "details": "See {IERC20-totalSupply}."
      },
      "transfer(address,uint256)": {
        "details": "See {IERC20-transfer}. Requirements: - `to` cannot be the zero address. - the caller must have a balance of at least `amount`."
      },
      "transferFrom(address,address,uint256)": {
        "details": "See {IERC20-transferFrom}. Emits an {Approval} event indicating the updated allowance. This is not required by the EIP. See the note at the beginning of {ERC20}. NOTE: Does not update the allowance if the current allowance is the maximum `uint256`. Requirements: - `from` and `to` cannot be the zero address. - `from` must have a balance of at least `amount`. - the caller must have allowance for ``from``'s tokens of at least `amount`."
      },
      "withdraw()": {
        "details": "ends XEN Stake and gets reward if the Stake is mature"
      }
    },
    "version": 1
  },
  "userdoc": {
    "kind": "user",
    "methods": {},
    "version": 1
  }
}